S01C000041706C69636163616F5F5044736F6C75636F65732E737265632B
S11300000C9434000C9451000C9451000C94510045
S11300100C9451000C9451000C9451000C94510018
S11300200C9451000C9451000C9451000C94510008
S11300300C9451000C9451000C9451000C945100F8
S11300400C94EA050C9451000C945E060C94510037
S11300500C9451000C9451000C9451000C945100D8
S11300600C9451000C94510011241FBECFEFD8E022
S1130070DEBFCDBF13E0A0E0B1E0EAE7FDE002C0DF
S113008005900D92A239B107D9F725E0A2E9B3E0B2
S113009001C01D92A53FB207E1F70E94D2050C945E
S11300A0BB060C940000F894F999FECF92BD81BD73
S11300B060BD8FB384608FBB8FB382608FBB789435
S11300C00895F894F999FECF92BD81BD8FB38160F4
S11300D08FBB789480B5089583E087B98CE088B9A4
S11300E088B18E7F88B988B18D7F88B90895BF9211
S11300F0CF92DF92EF92FF920F931F93CF93DF93F0
S113010080E090E00E9461008F3F09F088C08DC0BC
S1130110F0909803FF0CFF0C8F2D880F880FF80EBA
S113012061C00F2D10E0C8010E9461008F3F09F4E7
S11301306BC0CDECFC9EC12D1124C295CF70CC0FA9
S1130140CC0F8C2F880F880FC80F8F2D8C1B8C30F1
S113015098F4CE2CD12CC82FD0E0C8010E946100A5
S113016094E19C9D90019D9D300D112423563C4F9C
S1130170C20FD31F888335C08231A0F4CE2CD12C7A
S1130180C82FD0E02C97C8010E94610094E19C9D87
S113019090019D9D300D112423563C4FC20FD31F57
S11301A08C871FC0833178F4CE2DD0E0C8010E9423
S11301B0610094E19C9FF0019D9FF00D1124E35692
S11301C0FC4F828B0EC0CE2DD0E0C8010E9461008E
S11301D094E19C9FF0019D9FF00D1124E356FC4F88
S11301E0838BF3942F2D30E08091980390E0019657
S11301F064E1689FA001699F500D1124C90184170F
S113020095070CF48ECF02C0BB24B394B1100DC07B
S1130210809198038F5F80939803E39402C0E12C4C
S1130220B12C8DE18E1508F073CFC09197038DE04A
S1130230C89FE0011124C85ADD4F0BC0CE010E94B3
S113024061008F3FB1F0809197038F5F8093970394
S11302502D968091970390E001964DE0489F900180
S1130260499F300D1124C901885A9D4FC817D907D9
S11302702CF3DF91CF911F910F91FF90EF90DF90BE
S1130280CF90BF9008950F931F93CF93DF93109255
S11302909C038091980390E090939303809392033E
S11302A06DE180E091E00E944D0663E38DE191E011
S11302B00E944D0610E0C0E03EC080919C0388235C
S11302C089F161E08CE993E00E944D0680919C03E2
S11302D090ED980F9A3040F466E180E591E00E9439
S11302E04D0610929C031EC08823E1F0883021F44F
S11302F0CC23A1F0C15012C02091920330919303FA
S113030094E1929FF001939FF00D1124E356FC4F6A
S1130310EC0FF11D8083CF5F8D3051F010929C0360
S1130320CC3041F080919C0380538A3030F203C07A
S113033011E001C011E0113009F0BFCF61E186E6A0
S113034091E00E944D0668E287E791E00E944D0625
S113035010929C0300E0D0E052C080919C0388235B
S113036009F445C061E08CE993E00E944D06809158
S11303709C0390ED980F9A30F0F067E18FE991E0DB
S11303800E944D06C0E012C0209192033091930365
S113039044E1429FC001439F900D11248C0F911D95
S11303A061E087559C4F0E944D06CF5FCD1760F3E7
S11303B010929C031CC08823D1F0883021F4DD23E3
S11303C091F0D15010C0209192033091930394E1A5
S11303D0929FF001939FF00D1124E356FC4FED0F13
S11303E0F11D8487DF5F10929C03D63039F0809131
S11303F09C0380538A3008F0B0CF01C0012F013034
S113040009F0ABCF62E08EE491E00E944D0662E118
S113041086EB91E00E944D0667E288EC91E00E9431
S11304204D0610929C03C0E035C080919C03882344
S113043061F161E08CE993E00E944D0680919C0398
S113044090ED980F923040F06FE08FEE91E00E94B3
S11304504D0610929C0319C08823B9F0883021F40A
S1130460DD2389F0D1500FC0209192033091930382
S113047094E1929FF001939FF00D1124E356FC4FF9
S1130480828BC02F07C010929C0380919C038053E1
S1130490823058F6C13049F610929C0362E08EE433
S11304A091E00E944D06809192039091930324E180
S11304B0289FE001299FD00D112456C09E01ADEC68
S11304C0BCEC0E949806929582958F7089279F7044
S11304D0892764E1689F9001699F300D1124CE0142
S11304E0821B930B8C30910578F4649F9001659F77
S11304F0300D112423563C4FF901E80FF91F608198
S1130500CE010E9453002FC08231910580F40C97D4
S113051024E1249FF001259FF00D1124E356FC4FA4
S1130520E80FF91F6485CE010E9453001CC0439755
S113053068F484E1849FF001859FF00D1124E35653
S1130540FC4F6289CE010E9453000DC084E1849F58
S1130550F001859FF00D1124E356FC4F6389605D23
S1130560CE010E945300219640919203509193032F
S11305709A012F5F3F4F64E1629FC001639F900D1A
S11305801124C817D90708F499CF62E08EE491E0EA
S11305900E944D068091920390919303019690934B
S11305A093038093920380939803DF91CF911F91DB
S11305B00F9108950F931F93CF93DF931F92CDB79D
S11305C0DEB7198280E090E00E9461008F3F31F431
S11305D061E28EEF91E00E944D062DC063E18FE150
S11305E092E00E944D0600E01EC0812F90E024E1BD
S11305F0029F800D911D11240E94610089838F3F09
S113060061F08D3051F061E0CE0101960E944D06FB
S11306101F5F01C010E01C3040F30F5F62E08EE406
S113062091E00E944D0689818F3FA1F762E08EE43C
S113063091E00E944D060F90DF91CF911F910F9191
S11306400895EF92FF920F931F93CF93DF93CDB74B
S1130650DEB727970FB6F894DEBF0FBECDBF10925A
S11306609C0388E592E00E9461008F3F31F46CE1C5
S113067082E392E00E944D06F0C064E28EE492E0D0
S11306800E944D06F12C00E041C080919C03882318
S1130690A9F161E08CE993E00E944D0680919C03EE
S11306A090ED980F9A30B0F067E18FE991E00E94E5
S11306B04D0610E00AC061E081E090E08C0F9D1FC0
S11306C0810F911D0E944D061F5F1017A0F3109219
S11306D09C0314C0882391F0883021F4002351F046
S11306E0015008C0E1E0F0E0EC0FFD1FE00FF11D48
S11306F080830F5F10929C03063031F080919C033D
S113070080538A3010F602C0FF24F39421E0F212E1
S1130710BCCF62E08EE491E00E944D061F8210E09F
S113072040E091C0812F90E024E1289FF001299FAF
S1130730F00D1124E356FC4F2289213309F082C0C5
S1130740398124E1289FF001299FF00D1124E356FB
S1130750FC4F2485321376C03A8124E1289FF001AE
S1130760299FF00D1124E356FC4F258532136AC0EE
S11307703B8124E1289FF001299FF00D1124E356C9
S1130780FC4F268532135EC03C8124E1289FF00192
S1130790299FF00D1124E356FC4F2785321352C0D4
S11307A03D8124E1289FF001299FF00D1124E35697
S11307B0FC4F2089321346C02E8134E1389FF0016A
S11307C0399FF00D1124E356FC4F818928133AC058
S11307D025C0C7010E9461008F838F3F91F18D3046
S11307E031F462E08AE693E00E944D0605C061E0C0
S11307F0CE0107960E944D06C701885592406DE0D0
S113080070E00E9484060C9729F462E08EE491E083
S11308100E944D068FEFE81AF80A06C00F2EF8E57D
S1130820EF2EF2E0FF2EF02D809197032DE0829FB2
S1130830C0011124885A9D4FE816F90654F241E08C
S113084001C041E01F5F1E3108F46CCF411105C0A7
S113085062E182E792E00E944D0627960FB6F89473
S1130860DEBF0FBECDBFDF91CF911F910F91FF90DF
S1130870EF900895DF92EF92FF920F931F93CF931F
S1130880DF9300D000D000D0CDB7DEB7D82E1092C1
S11308909C0380E090E00E9461008F3F31F461E2AC
S11308A08EEF91E00E944D0601C164E28EE492E075
S11308B00E944D06F12C00E041C080919C038823E6
S11308C0A9F161E08CE993E00E944D0680919C03BC
S11308D090ED980F9A30B0F067E18FE991E00E94B3
S11308E04D0610E00AC061E081E090E08C0F9D1F8E
S11308F0810F911D0E944D061F5F1017A0F31092E7
S11309009C0314C0882391F0883021F4002351F013
S1130910015008C0E1E0F0E0EC0FFD1FE00FF11D15
S113092080830F5F10929C03063031F080919C030A
S113093080538A3010F602C0FF24F39421E0F212AF
S1130940BCCF62E08EE491E00E944D0610E020E00E
S1130950A3C09981E12EF12C84E18E9DF0018F9D3D
S1130960F00D1124E356FC4F8485981394C09A81AA
S113097084E18E9DF0018F9DF00D1124E356FC4F10
S11309808585981388C09B8184E18E9DF0018F9D9D
S1130990F00D1124E356FC4F868598137CC09C818E
S11309A084E18E9DF0018F9DF00D1124E356FC4FE0
S11309B08785981370C09D8184E18E9DF0018F9D81
S11309C0F00D1124E356FC4F8089981364C09E8176
S11309D084E18E9DF0018F9DF00D1124E356FC4FB0
S11309E08189981358C081E08093960300E01AC06F
S11309F0202F30E084E18E9DF0018F9DF00D1124B5
S1130A00E356FC4FE20FF31F6081809197034DE0A2
S1130A10849FC0011124885A9D4F820F931F0E9406
S1130A2053000F5F0C3020F381E0D81213C0809381
S1130A309503809197032DE0829FC0011124885A69
S1130A409D4F61E3800F911D0E94530088B1816026
S1130A5088B916C042E0D41213C081E08093940395
S1130A60809197032DE0829FC0011124885A9D4FE5
S1130A7062E3800F911D0E94530088B1826088B99F
S1130A80809197038F5F8093970361E184E892E0FC
S1130A900E944D0621E01F5F1E3108F45ACF211138
S1130AA005C062E182E792E00E944D0626960FB6E9
S1130AB0F894DEBF0FBECDBFDF91CF911F910F9190
S1130AC0FF90EF90DF90089568E285E992E00E943C
S1130AD04D066DE08DEB92E00E944D0669E18AECD3
S1130AE092E00E944D0664E283EE92E00E944D067D
S1130AF067E187E093E00E944D0666E18EE193E0B2
S1130B000E944D0666E184E393E00E944D0662E292
S1130B108AE493E00E944D0610929C0380919C030A
S1130B20882389F061E08CE993E00E944D0680916E
S1130B309C038153853038F065E28CE693E00E9493
S1130B404D0610929C0380919C038153853030F7AD
S1130B5062E08EE491E00E944D0680919C03833311
S1130B6089F028F4813341F0823349F015C084338D
S1130B7061F0853371F010C00E9443010DC00E94E2
S1130B80DA020AC00E94210307C081E00E943A04ED
S1130B9003C082E00E943A0462E08EE491E00E9485
S1130BA04D06089578940E9441060E946C000E94AC
S1130BB077000E94DE050E946405FDCF14BC83E02B
S1130BC085BD81E085BBEEE6F0E0808181608083B5
S1130BD016BC08951F920F920FB60F9211242F93F3
S1130BE08F939F9382E886BD80919503813059F459
S1130BF0329909C0109296031092990310929503AA
S1130C0088B18E7F88B980919403813059F43399E7
S1130C1009C010929603109299031092940388B11C
S1130C208D7F88B980919A0390919B03883E23E03D
S1130C30920730F4019690939B0380939A0319C012
S1130C4010929B0310929A0380919603882389F053
S1130C50809199038F5F80939903853050F01092AF
S1130C6096031092990388B18E7F88B988B18D7FDD
S1130C7088B99F918F912F910F900FBE0F901F9065
S1130C8018951092C50083E38093C40088E980938B
S1130C90C10086E08093C2000895FC0109C09091D0
S1130CA0C00095FFFCCF80818093C60061503196CF
S1130CB06111F5CF08958091C60008951F920F9297
S1130CC00FB60F9211242F933F934F935F936F931B
S1130CD07F938F939F93AF93BF93EF93FF930E9460
S1130CE05B0680939C03FF91EF91BF91AF919F911D
S1130CF08F917F916F915F914F913F912F910F90C1
S1130D000FBE0F901F90189597FB072E16F40094B2
S1130D1007D077FD09D00E94A70607FC05D03EF452
S1130D20909581959F4F0895709561957F4F089593
S1130D30A29FB001B39FC001A39F700D811D112418
S1130D40911DB29F700D811D1124911D0895AA1B40
S1130D50BB1B51E107C0AA1FBB1FA617B70710F0A2
S1130D60A61BB70B881F991F5A95A9F780959095D4
S10D0D70BC01CD010895F894FFCFF3
S1130D7A4D656E7520646520436164617374726F96
S1130D8A20646F205573756172696F0D0044696739
S1130D9A697465206F206E6F6D6520646F207573AA
S1130DAA756172696F20286D6178696D6F203132BF
S1130DBA2063617261637465726573293A200D0058
S1130DCA446967697465206170656E6173206C6536
S1130DDA747261730D004E6F6D6520636164617393
S1130DEA747261646F0D00456E74726520636F6D71
S1130DFA20612073656E686120286170656E617375
S1130E0A2036206E756D65726F73293A200D004481
S1130E1A6967697465206170656E6173206E756DAA
S1130E2A65726F730D0053656E6861206361646156
S1130E3A7374726164610D00456E74726520636F28
S1130E4A6D203120706172612041444D206520304B
S1130E5A207061726120436F6D756D3A200D0044F4
S1130E6A69676974652030206F7520310D004E6101
S1130E7A6F2068612066756E63696F6E6172696F4F
S1130E8A73206361646173747261646F730D004CDF
S1130E9A69737461206465207573756172696F730F
S1130EAA0D004E616F206861206576656E746F73FC
S1130EBA206361646173747261646F730D00456EBB
S1130ECA74726520636F6D20612073656E6861209A
S1130EDA64652061646D6E6973747261646F723AD9
S1130EEA200053656E686120696E636F727265745F
S1130EFA61210D00506F727461206C6962657261C0
S1130F0A6461210D004D656E75205072696E6369C6
S1130F1A70616C20476572656E6369616D656E7494
S1130F2A6F2064652041636573736F0D005044201C
S1130F3A536F6C75636F65730D0031202D20436107
S1130F4A64617374726F20646F207573756172695A
S1130F5A6F0D0032202D204C6973746120646F7305
S1130F6A207573756172696F732063616461737448
S1130F7A7261646F730D0033202D204C69737461A0
S1130F8A20646F73206576656E746F730D00342068
S1130F9A2D204C6962657261206120706F727461E0
S1130FAA20310D0035202D204C6962657261206163
S1130FBA20706F72746120320D004573636F6C6820
S1130FCA61206F20636F6D616E646F2028656E7493
S1130FDA7265203120652035293A20004E756D65E9
S1130FEA726F2065727261646F212E204573636F7C
S1130FFA6C686120656E7472652031206120350D3C
S105100A0000E0
S9030000FC
